:020000040000fa
:080000000001040000000000f3
:020000040000fa
:1000080042020000420200004202000042020000d8
:1000180042020000420200004202000042020000c8
:10002800420200004202000042020000862e000048
:100038004202000042020000102f0000742f00004e
:1000480042020000623100004202000094010000f8
:100058004202000042020000420200004202000088
:100068004202000042020000420200004202000078
:100078004202000042020000420200004202000068
:100088004202000042020000420200004202000058
:100098004202000042020000420200004202000048
:1000a8004202000042020000420200004202000038
:1000b8004202000042020000420200004202000028
:1000c8004202000042020000420200004202000018
:1000d8004202000042020000420200004202000008
:1000e80042020000420200004202000042020000f8
:0800f800420200004202000078
:020000040000fa
:1001080042020000420200004202000042020000d7
:1001180042020000420200004202000042020000c7
:10012800420200004202000042020000862e000047
:100138004202000042020000102f0000742f00004d
:1001480042020000623100004202000094010000f7
:100158004202000042020000420200004202000087
:100168004202000042020000420200004202000077
:100178004202000042020000420200004202000067
:100188004202000042020000420200004202000057
:100198004202000042020000420200004202000047
:1001a8004202000042020000420200004202000037
:1001b8004202000042020000420200004202000027
:1001c8004202000042020000420200004202000017
:1001d8004202000042020000420200004202000007
:1001e80042020000420200004202000042020000f7
:0801f800420200004202000077
:020000040000fa
:100200000fc420000eff20000e0188000000000037
:1002100000012000200288000c00070040b52200e9
:100220000100200011000700000020000000e00095
:10023000020032000000020000000000283302002b
:10024000000000000040da000000fe004440a90069
:10025000e0d921000000e00003003200000020008f
:10026000a00188004440a800000006009101880019
:10027000800078000000eb0015003700e2804000ad
:1002800032a0b4009101ba00e280400032a0b40074
:100290009102ba00e280400032a0b4000002eb00fc
:1002a000472bde00f507b200602ce10004003a00a5
:1002b0000059eb008301e900fdff3e000400370018
:1002c0006128e100010032000082eb000400070019
:1002d0001101ba000200e000e8ff3a000000060049
:1002e0003159ba008301e9000c0032002159ba00eb
:1002f0008301e900080032000400e00003003a0036
:10030000e280400032a0b400f5ff370011d9ba00f6
:100310008301e900faff3a008100e800e180400033
:1003200032a0b40000000600841f78003400f800fa
:1003300004002000a40188000000fa0004148000da
:10034000f460880014148000046188002414800084
:100350001461880034148000246188008560a9003d
:100360000080fa003400f9004f02780000400600d7
:100370000000fa00a902a900a922a900a962a90007
:10038000a982a900c702a800c722a800c762a800c6
:10039000c782a8000080fa00000006000000fa00f2
:1003a000a1a2a900041580000480a1000490a1006e
:1003b00004158800041580000450a0000460a0000b
:1003c0000470a00004158800a022a8001415800065
:1003d00004d0a00004e0a00004f0a00014158800e0
:1003e000a342a800141580000420a0000430a0003f
:1003f0000440a1000450a10014158800a222a90005
:10040000a202a9002515800004f0210004827200d8
:1004100024158800a4e2a8002515800004fc2f0004
:1004200004826200f401b30024158800a782a900a9
:10043000a682a900341580000400a1000410a100c8
:100440000420a1000430a100341588003415800078
:100450000480a1000490a10004a0a10004b0a100a8
:100460003415880004b0210054158800a042a8006b
:100470008560a8008d60a800a1e2a8000080fa00b5
:10048000000006000040da000000fe000001be008f
:100490001b0007000470a70003f0a10003f8a300ed
:1004a00013003a006509b100100032000900350060
:1004b0006928e10002003500010028000000050065
:1004c00000004000818048008502e900fcff3a00fe
:1004d00000000600f88f4200050035008100d100c1
:1004e0000080d3008502e800fcff3a00000006000f
:1004f0008000eb00000005006011b80059003700d3
:10050000c70ade00f107b200f50fb20008003200a2
:10051000e1cf4200020032000170a000240005007b
:10052000810f70000100320004080500440005003e
:10053000810f700002003a00140005008502e900f6
:100540000000400081c04800fcff3b000170a0009b
:1005500024000500889fbe008a9fbe008c1f780083
:10056000950007009c00330003866c006450e10096
:10057000240032006420e100270032006150e100d5
:10058000220032006120e100210032008b85420010
:10059000eb07b1000134b800003ab800080442008b
:1005a00089844a00013ab8000030b80088804000d1
:1005b00009014a0004003300000040008180480027
:1005c000020149008b05e900c909dd0083017000c3
:1005d0000100320013002000c814de004814dd00c2
:1005e0004709de001200b200c808de00088470006f
:1005f0004b00070001f0a1000cf0a70001f0a000e3
:100600007e0037006120e100800032000801be005a
:100610000200be00f7ff37006150e100fcff3a0026
:100620007a0037006022b800060220000000d000e7
:100630008180d2000482d2008582d2000000a00016
:100640000202520083825a0003003100020242007b
:1006500083824a000000a1000603e900f3ff3a008c
:1006600000000600889fbe008a9fbe0000827000c6
:100670000402710004827100260032000004be00f2
:100680000200be006011b8006b0920009502200036
:100690000182cf000a0039000541b1000082cf007d
:1006a000070039000541b1000982cf00040039007c
:1006b0000541b1000882cf00010039000541b100b9
:1006c00005425200120032000a003b008281710094
:1006d000610164008100d1000080d3008984d300cf
:1006e0000884d3008b05e8000442e800f7ff3a00d5
:1006f000070037000804440089844c0000004800cb
:10070000818048008b05e9000442e900f9ff3a00c6
:10071000030007004f05be004f04be0000000600a6
:1007200081002000618055000b003d000b0020007f
:1007300061fe2f000100e1001d0034008281710084
:10074000610164008904d1000884d3000000e8003e
:10075000faff3a007100200061006400030070009d
:10076000020060000900320061044400e0844c0093
:100770000988a500050032008b05e8006808e10043
:1007800002003a008904d1000884d300f20f20004f
:100790000258e10005003d00c75ddd00f907b20029
:1007a0008980750008007800000006000bf827001b
:1007b0008b007800000005000004be0050ff070019
:1007c0000003be000405be000200be004cff07008f
:1007d000844f7500000006000200be006450e10076
:1007e000050036006420e100020036000968a3001d
:1007f00001003a000800be000160a0004f0678002a
:100800004f05be004f04be0000000600f0ff2f00a1
:10081000f1ff2700f9ff37000002780002003700df
:10082000315a78000201e900e00f5100fcff3a0064
:1008300000000600b042780031c2520002003a00c7
:10084000e0cf5200fbff3a000400fb00000006006e
:020000040000fa
:100850000000000000000000000000000000000098
:1008600000000000fe020000020200006222000000
:1008700082d20000dad20000822200006202000070
:100880000202000002020000020200000202000058
:100890000202000002020000020200000202000048
:1008a0000202000002020000020200000202000038
:1008b0000202000002020000020200000202000028
:1008c00002020000028200004222000012ca000060
:1008d000ca12000022420000820200000202000050
:1008e00002020000020200000202000002020000f8
:1008f00002020000020200000202000002020000e8
:1009000002020000020200000202000002020000d7
:1009100002020000020200000202000002020000c7
:1009200002020000020200000202000002020000b7
:10093000020200000202000002fe000000000000af
:1009400000000000000000000000000000000000a7
:100950000000000000000000000000000000000097
:1009600000000000ff000000020700003027000028
:100970000f5f0000df5f00000f270000300700005e
:1009800002000000008000008080000000000000e5
:1009900000000000008000008080000000000000d7
:1009a0000000000000000000000000000000000047
:1009b0000080000040200000a0a00000a040000037
:1009c000800000001f2000004449000052ff00008a
:1009d000ff52000049440000201f0000008000007a
:1009e00040a00000a0a00000204000008000000007
:1009f00000000000000000000000000000000000f7
:100a000000000000000000000000000000000000e6
:100a10000000000080000000008000000080000056
:100a200000000000000000000000000000000000c6
:100a3000000000000000000000ff000000000000b7
:100a400000000000000000000000000000000000a6
:100a50000000000000000000000000000000000096
:100a600000000000ff000000000000000000000087
:100a70000000000000000000000000000000000076
:100a8000800e0000090400001da300004551000075
:100a90007151000045a300001d040000090e000074
:100aa0000000000000000000000000000000000046
:100ab0000000000001020000021200002a290000cc
:100ac000281100000a8400004488000010ff000084
:100ad000ff10000088440000840a00001128000074
:100ae000292a00001202000002010000000000009c
:100af00000000000000000000000000000000000f6
:100b000000000000000000000000000000000000e5
:100b10000000000000f100000a0f000009f00000d2
:100b200000000000000000000000000000000000c5
:100b3000000000000000000000ff000000000000b6
:100b400000000000000000000000000000000000a5
:100b50000000000000000000000000000000000095
:100b600000000000ff800000808000008080000006
:100b70008080000080800000808000008283000070
:100b80008183000086bc0000a6b10000bca000006c
:100b9000a0a00000bcb10000a6b80000808000004a
:100ba000808000008080000080a000009090000005
:100bb00090900000909000009090000090900000b5
:100bc000909000009090000090900000919f000095
:100bd0009f91000090900000909000009090000085
:100be0009090000090900000909000009090000085
:100bf00090900000a08000008080000080800000b5
:100c000080800000808000008080000080a00000c4
:100c100090900000909300009c9000009c93000036
:100c20009090000090a00000808000008080000074
:100c3000808000008080000080ff00000000000035
:100c400000000000000000000000000000000000a4
:100c50000000000000000000000000000000000094
:100c60000000000000000000000000000000000084
:100c70000000000000000000000000000000000074
:100c80000000000000000000000000000000000064
:100c90000000000000f800000808000010e000005c
:100ca00000f000000808000008f0000000f8000054
:100cb000888800008870000000f800008888000024
:100cc0008870000000f000000808000008f0000034
:100cd00000f800000808000010e0000000f000002c
:100ce0000808000008f0000000f800008a8c0000ee
:100cf0008a88000000f800000000000000000000ea
:100d00000008000008f800000808000000000000cb
:100d100000000000000000000000000000000000d3
:100d200000000000000000000000000000000000c3
:100d300000000000000000000000000000000000b3
:100d400000000000000000000000000000000000a3
:100d50000000000000000000000000000000000093
:100d60000000000000000000000000000000000083
:100d70000000000000000000000000000000000073
:100d80000000000000000000000000000000000063
:100d900000000000000f000008080000040300002d
:100da000000700000808000008070000000f00000e
:100db0000808000008070000000f00000102000002
:100dc00004080000000700000808000008070000f1
:100dd000000f0000088800000483000000070000e6
:100de00008080000080700000008000008080000cc
:100df000080f0000000f00000808000008080000ad
:100e000000080000080f00000808000000000000b3
:100e100000000000000000000000000000000000d2
:100e200000000000000000000000000000000000c2
:100e300000000000000000000000000000000000b2
:100e400000000000000000000000000000000000a2
:100e50000000000000000000000000000000000092
:100e60000000000000000000000000000000000082
:100e70000000000000000000000000000000000072
:100e80000000000000000000000000000000000062
:100e90000000000000000000000000000000000052
:100ea0000000000000fe00000000000000fe000046
:100eb000000000000000000000000000fe22000012
:100ec00022220000dc000000fe220000222200009e
:100ed000fe0000003e22000023220000e20000008d
:100ee00002020000fe02000002000000fe000000fe
:100ef00000000000fe00000000fe000000000000f6
:100f000000000000000000000000000000000000e1
:100f100000000000000000000000000000000000d1
:100f200000000000000000000000000000000000c1
:100f300000000000000000000000000000000000b1
:100f400000000000000000000000000000000000a1
:100f50000000000000000000000000000000000091
:100f60000000000000000000000000000000000081
:100f70000000000000000000000000000000000071
:100f80000000000000000000000000000000000061
:100f90000000000000000000000000000000000051
:100fa0000000000000010000020200000201000039
:100fb000000000000000000000000000030200002c
:100fc0000202000001000000030000000000000019
:100fd0000300000002020000020200000300000003
:100fe00000000000030000000000000001020000fb
:100ff00002020000010000000002000000000000ea
:1010000000000000000000000000000000000000e0
:1010100000000000000000000000000000000000d0
:1010200000000000000000000000000000000000c0
:1010300000000000000000000000000000000000b0
:1010400000000000000000000000000000000000a0
:101050000000000000000000f8080000e828000080
:1010600028280000282800002828000028e8000080
:10107000e828000028280000282800002828000070
:1010800028e8000008f80000000000000000000050
:101090000000000000000000f80800000808000040
:1010a0000808000008080000080800000808000000
:1010b00008080000080800000808000008080000f0
:1010c0000808000008f80000000000000000000010
:1010d0000000000000000000f80800000808000000
:1010e0004888000008080000080800000808000000
:1010f00008080000080800000808000088480000f0
:101100000808000008f800000000000000000000cf
:101110000000000000000000f8e80000e8e800001f
:10112000e8e80000e8c80000c8c80000888800009f
:1011300088080000080800000808000008080000ef
:101140000808000008f8000000000000000000008f
:101150000000000000000000ff000000ff60000031
:1011600060600000606000006060000060ff0000e0
:10117000ff600000606000006060000060600000d0
:1011800060ff000000ff0000000000000000000001
:101190000000000000000000ff0000000000000050
:1011a000000000000000000000000000000000003f
:1011b000000000000000000000000000000000002f
:1011c0000000000000ff0000000000000000000020
:1011d0000000000000000000ff00000010220000de
:1011e0004408000011220000040800001000000064
:1011f0000010000008040000221100000844000054
:101200002010000000ff00000000000000000000af
:101210000000000000000000ff1f00001f1f000072
:101220003f3f00003f3f00007f7f0000ffff0000c6
:10123000ffff0000fffe0000fcf80000f0e00000ef
:10124000c080000000ff000000000000000000005f
:101250000000000000000000ff000000ffc00000d0
:10126000c0c00000c0c00000c0c00000c0ff00003f
:10127000ffc00000c0c00000c0c00000c0c000002f
:10128000c0ff000000ff00000000000000000000a0
:101290000000000000000000ff00000000f8000057
:1012a0000c060000c24200004202000006c400001a
:1012b00046c200000206000044440000cc180000b2
:1012c00010300000e0ff00000000000000000000ff
:1012d0000000000000000000ff000000e01000001f
:1012e0000804000002020000028200000202000066
:1012f0000202000082020000020200000408000056
:1013000010e0000000ff00000000000000000000ee
:101310000000000000000000ff00000000000000ce
:1013200000000000000000000000000000010000bc
:10133000030700000f1f00007fff0000ffff0000f9
:10134000ffff0000ffff00000000000000000000a1
:101350000000000000000000ff000000ff8000000f
:1013600080800000808000008080000080ff0000fe
:10137000ff80000080800000809c00009c9c00009a
:101380009cff000000ff00000000000000000000c3
:101390000000000000000000ffe3000081010000e9
:1013a00000000000c7040000040000000007000067
:1013b00004070000c0000000070500000500000051
:1013c0000000000081ff000000000000000000009d
:1013d0000000000000000000ff0000001f200000cf
:1013e000408000000000000003040000ff04000033
:1013f00004ff000004030000000000008040000023
:10140000201f000000ff000000000000000000009e
:101410000000000000000000ff00000000000000cd
:10142000000000000000000080000000000000003c
:10143000000000000000000080e10000ffff00004d
:10144000ffff0000ffff00000000000000000000a0
:101450000000000000000000ff000000ff0100008d
:1014600001010000010100000101000001ff000076
:10147000ff01000001010000010100000101000066
:1014800001ff000000ff000000000000000000005d
:101490000000000000000000ff000000010100004b
:1014a00021410000ff40000020000000ff0000007c
:1014b000102000007f2000001000000000ff00004e
:1014c0000203000001ff0000000000000000000017
:1014d0000000000000000000ff000000000000000d
:1014e000000000003fe00000202000002f2000004e
:1014f000202f000020200000e03f0000000000003e
:101500000000000000ff00000000000000000000dc
:101510000000000000000000ffc00000e0f000003c
:10152000f8fc0000feff0000fff80000f8f80000e3
:10153000fcfc0000feff0000ffff0000ffff0000ba
:10154000ff7f00003fff00000000000000000000df
:101550000000000000000000ff000000ff0300008a
:1015600003030000030300000303000003ff000067
:10157000ff03000003030000030300000303000057
:1015800003ff000000ff000000000000000000005a
:101590000000000000000000ff000000000000004c
:1015a000000000000000000001020000070200002f
:1015b000010000000000000000020000040f000015
:1015c0000402000000ff0000000000000000000016
:1015d0000000000000000000ff000000000000000c
:1015e0000000000000000000031c00001c1c0000a4
:1015f0001c1c00001c030000000000000000000094
:101600000000000000ff00000000000000000000db
:101610000000000000000000ff030000070f0000b2
:101620001f3f00007fff0000ff1f00001f1f000082
:101630000f0f00000f07000007030000010100006a
:101640000000000000ff000000000000000000009b
:10165000f0100000d010000017140000d515000095
:10166000d55500005555000095150000d5550000d2
:1016700055550000d515000055550000d555000002
:1016800055150000d457000050500000d010000045
:1016900010100000f01000001714000014140000d7
:1016a000945400005454000014940000545400005a
:1016b00054940000141400005454000054540000ca
:1016c000d41400001417000010100000f0100000e7
:1016d000d05000005050000057140000d4140000f7
:1016e00014140000d4140000d4540000545400001a
:1016f0001454000054d400005454000014d40000ca
:101700001414000014170000905000005050000006
:1017100090100000f01000001714000014d4000016
:10172000545400005494000015d400005454000098
:1017300054d40000149400005454000054140000c9
:10174000d414000014170000d010000010f00000a6
:10175000ff0000001f200000402000001f000000cc
:101760007f0c000014240000430000007f040000f0
:10177000040400007f000000000000007f00000063
:10178000000000007f040000040400007f0000004f
:1017900000000000ff00000000000000000000004a
:1017a0003f40000040400000003f0000404000007b
:1017b000403f0000000000007c4400004444000062
:1017c000470000000000000000000000ff000000d3
:1017d00047440000444400007c0000001f2000003b
:1017e000402000001f0000007f4400004440000033
:1017f00000000000007f000000000000007f0000eb
:1018000040400000400000003f4000004040000019
:101810003f000000ff00000000000000007f00000b
:1018200044440000443b0000007f0000040400002a
:10183000047f0000003f0000404000004000000026
:101840007f0400000a1100006000000000ff00009b
:101850000000000000000000000000000000000088
:101860000000000000000000000000000000000078
:101870000000000000000000000000000000000068
:101880000000000000000000000000000000000058
:101890000000000000000000000000000000000048
:1018a000000000000000000000000000f800000040
:1018b00000000000f8000000f888000088880000a0
:1018c00070000000f888000088880000f800000020
:1018d00008080000f808000008000000f888000070
:1018e00088880000f80000000000000000000000f0
:1018f00000000000000000000000000000000000e8
:1019000000000000000000000000000000000000d7
:1019100000000000000000000000000000000000c7
:1019200000000000000000000000000000000000b7
:10193000fe0e00000e32000032c20000c282000023
:10194000c2c20000323200000e0e0000fe00000095
:101950000000000000000000000000000000000087
:101960000000000000000000000000000000000077
:101970000000000000000000000000000000000067
:101980000000000000000000000000000000000057
:101990000000000000000000000000000000000047
:1019a00000000000004000004040000043440000f0
:1019b00048440000434000004f4100004244000002
:1019c000484000004f400000404000004f400000f1
:1019d000404000004f400000404000004f400000e9
:1019e000404000004f400000404000000000000068
:1019f00000000000000000000000000000000000e7
:101a000000000000000000000000000000000000d6
:101a100000000000000000000000000000000000c6
:101a200000000000000000000000000000000000b6
:101a3000ffe00000e0980000988600008783000027
:101a40008786000098980000e0e00000ff0000009a
:101a50000000000000000000000000008080000086
:101a60008080000080800000808000008080000076
:101a70008080000080800000808000008080000066
:101a80008080000080800000808000000000000056
:101a90000000000000000000000000000000000046
:101aa0000000000000000000000000000000000036
:101ab0008080000080800000808000008080000026
:101ac0008080000080800000808000008080000016
:101ad0008080000080800000808000008080000006
:101ae00000000000000000000000000000000000f6
:101af00000000000000000000000000000000000e6
:101b000000000000000000008080000080800000d5
:101b100080800000808000008080000080800000c5
:101b200080800000808000008080000080800000b5
:101b300080800000808000000000000000000000a5
:101b40000000000000000000000000000000000095
:101b5000000000000000000000000000ff00000086
:101b6000000000000000000000c000008000000035
:101b7000000000000000000080c000000000000025
:101b8000000000000000000000ff00000000000056
:101b90000000000000000000000000000000000045
:101ba0000000000000000000000000000000000035
:101bb000ff000000060e00001c38000070e000006e
:101bc000c0800000000000000000000080c0000095
:101bd000e0700000381c00000e06000000ff00004e
:101be00000000000000000000000000000000000f5
:101bf00000000000000000000000000000000000e5
:101c00000000000000000000ff00000000000000d5
:101c100000000000000000000000000000000000c4
:101c200000000000000000000000000080c0000074
:101c3000e060000000ff0000000000000000000065
:101c40000000000000000000000000000000000094
:101c5000000000000000000000000000ff00000085
:101c60000000000000000000007f0000073c0000b2
:101c700020400000203c0000077f00000000000022
:101c8000000000000000000000ff00000000000055
:101c90000000000000000000000000000000000044
:101ca0000000000000000000000000000000000034
:101cb000ff000000000000000000000080c00000e5
:101cc000e17300003f1e00001e3f000073e10000b2
:101cd000c0800000000000000000000000ff0000c5
:101ce00000000000000000000000000000000000f4
:101cf00000000000000000000000000000000000e4
:101d00000000000000000000ff000000c0c0000054
:101d100080000000000000000000000080c0000003
:101d2000e0700000381c00000e07000003010000f6
:101d30000000000000ff00000000000000000000a4
:101d40000000000000000000000000000000000093
:101d50000000000000000000000000007f400000c4
:101d60004040000040400000404000004040000073
:101d70004040000040400000404000004040000063
:101d80004040000040400000407f00000000000094
:101d90000000000000000000000000000000000043
:101da0000000000000000000000000000000000033
:101db0007f400000585c00004e4700004341000097
:101dc0004040000040400000404000004040000013
:101dd00041430000474e00005c580000407f000077
:101de00000000000000000000000000000000000f3
:101df00000000000000000000000000000000000e3
:101e000000000000000000007f4000004041000092
:101e1000434700004e5c00004e4700004341000075
:101e200040400000404000004040000040400000b2
:101e300040400000407f0000000000000000000063
:101e40000000000000000000000000000000000092
:101e500000000000000000000000000000f800008a
:101e6000f08000000000000000800000f0f800009a
:101e700000f000000808000008080000f000000062
:101e8000f80800000808000008f00000000000004a
:101e90000000000000000000000000000000000042
:101ea0000000000000f00000080800000808000022
:101eb000f000000008080000f8080000080000001a
:101ec000f800000000000000f8000000f00800002a
:101ed0000808000008f0000000f8000088880000f2
:101ee0008870000000080000f808000000000000f2
:101ef00000000000000000008888000088c8000082
:101f0000a898000000f800008888000088f8000009
:101f10000008000008f800000808000000f80000b1
:101f20000000000000f8000000f0000008080000b9
:101f300008080000f0000000f88800008888000011
:101f40007000000008f80000080000000000000019
:101f5000000000000000000000000000000f000072
:101f6000000700000408000004070000000f000044
:101f70000007000008080000080800000700000033
:101f80000f0800000808000008070000000000001b
:101f90000000000000000000000000000000000041
:101fa000000000000007000008080000080800000a
:101fb00007000000000000000f000000000000000b
:101fc00003040000080400000300000007080000ec
:101fd0000808000008070000000f000001020000d0
:101fe00004080000000800000f08000000000000c6
:101ff00000000000000000000c0a000009080000ba
:1020000008080000000f000000000000000f0000a2
:1020100000000000000f00000000000000030000ae
:102020000408000004030000000700000808000086
:1020300008080000070000000f0100000204000073
:1020400008000000080f0000080000000000000069
:102050000000000000000000000000000000000080
:102060000000000000000000000000000000000070
:102070000000000000000000000000000000000060
:102080000000000000000000000000000000000050
:102090000000000000000000000000000000000040
:1020a000000000000000000000000000f800000038
:1020b00000000000f8000000f88800008888000098
:1020c00070000000f888000088880000f800000018
:1020d00008080000f808000008000000f888000068
:1020e00088880000f80000000000000000000000e8
:1020f00000000000000000000000000000000000e0
:1021000000000000000000000000000000000000cf
:1021100000000000000000000000000000000000bf
:1021200000000000000000000000000000000000af
:10213000fe0e00000e32000032c20000c28200001b
:10214000c2c20000323200000e0e0000fe0000008d
:10215000000000000000000000000000000000007f
:10216000000000000000000000000000000000006f
:10217000000000000000000000000000000000005f
:10218000000000000000000000000000000000004f
:10219000000000000000000000000000000000003f
:1021a00000000000004000004040000043440000e8
:1021b00048440000434000004f41000042440000fa
:1021c000484000004f400000404000004f400000e9
:1021d000404000004f400000404000004f400000e1
:1021e000404000004f400000404000000000000060
:1021f00000000000000000000000000000000000df
:1022000000000000000000000000000000000000ce
:1022100000000000000000000000000000000000be
:1022200000000000000000000000000000000000ae
:10223000ffe00000e098000098860000878300001f
:102240008786000098980000e0e00000ff00000092
:10225000000000000000000000000000808000007e
:10226000808000008080000080800000808000006e
:10227000808000008080000080800000808000005e
:10228000808000008080000080800000000000004e
:10229000000000000000000000000000000000003e
:1022a000000000000000000000000000000000002e
:1022b000808000008080000080800000808000001e
:1022c000808000008080000080800000808000000e
:1022d00080800000808000008080000080800000fe
:1022e00080800000808000008080000080800000ee
:1022f00080800000808000008080000080800000de
:1023000080800000808000008080000080800000cd
:1023100080800000808000008080000080800000bd
:1023200080800000808000008080000080800000ad
:10233000808000000000000000000000000000009d
:10234000000000000000000000000000000000008d
:10235000000000000000000000000000ff0000007e
:1023600000000000000000000000000000c00000ad
:102370004040000040400000c0000000000000009d
:10238000000000000000000000ff0000000000004e
:10239000000000000000000000000000000000003d
:1023a000000000000000000000000000000000002d
:1023b000ff0000000000000000000000000000001e
:1023c000000000008080000080800000000000000d
:1023d00080800000808000008000000080000000fd
:1023e00000000000800000000080000080800000ed
:1023f000800000000080000080800000800000005d
:10240000008000008080000080000000800000004c
:10241000000000008000000080800000808000003c
:10242000800000000000000000000000000000002c
:1024300000ff00000000000000000000000000009d
:10244000000000000000000000000000000000008c
:10245000000000000000000000000000ff0000007d
:10246000000000000000000000000000007f0000ed
:1024700004040000040400007f00000000000000cd
:10248000000000000000000000ff0000000000004d
:10249000000000000000000000000000000000003c
:1024a000000000000000000000000000000000002c
:1024b000ff0000000000000000000000000000001d
:1024c000007f000080800000808000007f0000000e
:1024d00000000000ff000000000000003f4000007e
:1024e000804000003f0000007f80000080800000ee
:1024f000807f000000ff00001828000048870000cf
:1025000000ff00008888000080000000ff0f00002e
:1025100078400000ff000000ff08000008080000ed
:10252000ff000000000000000000000000000000ac
:1025300000ff00000000000000000000000000009c
:10254000000000000000000000000000000000008b
:102550000000000000000000000000007f400000bc
:10256000404000004040000040400000404000006b
:10257000404000004040000040400000404000005b
:102580004040000040400000407f0000000000008c
:10259000000000000000000000000000000000003b
:1025a000000000000000000000000000000000002b
:1025b0007f400000404000004040000040400000dc
:1025c000404000004040000040400000404000000b
:1025d00040400000404000004040000040400000fb
:1025e00040400000404000004040000040400000eb
:1025f00040400000404000004040000040400000db
:1026000040400000404000004040000040400000ca
:1026100040400000404000004040000040400000ba
:1026200040400000404000004040000040400000aa
:10263000407f0000000000000000000000000000db
:10264000000000000000000000000000000000008a
:1026500000000000000000000000000000f8000082
:10266000f08000000000000000800000f0f8000092
:1026700000f000000808000008080000f00000005a
:10268000f80800000808000008f000000000000042
:10269000000000000000000000000000000000003a
:1026a000000000000000000000000000000000002a
:1026b000000000000000000000000000000000001a
:1026c000000000000000000000000000000000000a
:1026d00000000000000000000000000000000000fa
:1026e00000000000000000000000000000000000ea
:1026f00000000000000000000000000000000000da
:1027000000000000000000000000000000000000c9
:1027100000000000000000000000000000000000b9
:1027200000000000000000000000000000000000a9
:102730000000000000000000000000000000000099
:102740000000000000000000000000000000000089
:10275000000000000000000000000000000f00006a
:10276000000700000408000004070000000f00003c
:10277000000700000808000008080000070000002b
:102780000f08000008080000080700000000000013
:102790000000000000000000000000000000000039
:1027a0000000000000000000000000000000000029
:1027b0000000000000000000000000000000000019
:1027c0000000000000000000000000000000000009
:1027d00000000000000000000000000000000000f9
:1027e00000000000000000000000000000000000e9
:1027f00000000000000000000000000000000000d9
:1028000000000000000000000000000000000000c8
:1028100000000000000000000000000000000000b8
:1028200000000000000000000000000000000000a8
:102830000000000000000000000000000000000098
:102840000000000000000000000000000000000088
:102850000000000000000000000000000000000078
:102860000000000000000000000000000000000068
:102870000000000000000000000000000000000058
:102880000000000000000000000000000000000048
:102890000000000000000000000000000000000038
:1028a000000000000000000000000000f800000030
:1028b00000000000f8000000f88800008888000090
:1028c00070000000f888000088880000f800000010
:1028d00008080000f808000008000000f888000060
:1028e00088880000f80000000000000000000000e0
:1028f00000000000000000000000000000000000d8
:1029000000000000000000000000000000000000c7
:1029100000000000000000000000000000000000b7
:1029200000000000000000000000000000000000a7
:10293000fe0e00000e32000032c20000c282000013
:10294000c2c20000323200000e0e0000fe00000085
:102950000000000000000000000000000000000077
:102960000000000000000000000000000000000067
:102970000000000000000000000000000000000057
:102980000000000000000000000000000000000047
:102990000000000000000000000000000000000037
:1029a00000000000004000004040000043440000e0
:1029b00048440000434000004f41000042440000f2
:1029c000484000004f400000404000004f400000e1
:1029d000404000004f400000404000004f400000d9
:1029e000404000004f400000404000000000000058
:1029f00000000000000000000000000000000000d7
:102a000000000000000000000000000000000000c6
:102a100000000000000000000000000000000000b6
:102a200000000000000000000000000000000000a6
:102a3000ffe00000e0980000988600008783000017
:102a40008786000098980000e0e00000ff0000008a
:102a50000000000000000000000000008080000076
:102a60008080000080800000808000008080000066
:102a70008080000080800000808000008080000056
:102a80008080000080800000808000000000000046
:102a90000000000000000000000000000000000036
:102aa0000000000000000000000000000000000026
:102ab0008080000080800000808000008080000016
:102ac0008080000080800000808000008080000006
:102ad00080800000808000008080000080800000f6
:102ae00080800000808000008080000080800000e6
:102af00080800000808000008080000080800000d6
:102b000080800000808000008080000080800000c5
:102b100080800000808000008080000080800000b5
:102b200080800000808000008080000080800000a5
:102b30008080000000000000000000000000000095
:102b40000000000000000000000000000000000085
:102b5000000000000000000000000000ff00000076
:102b600000000000000000000000000000c00000a5
:102b70004040000040400000c00000000000000095
:102b8000000000000000000000ff00000000000046
:102b90000000000000000000000000000000000035
:102ba0000000000000000000000000000000000025
:102bb000ff00000000000000000000008080000016
:102bc0008080000080800000008000008080000085
:102bd0008080000000800000808000008080000075
:102be00000800000000000000080000000000000e5
:102bf00080800000808000000000000080800000d5
:102c000080800000000000008080000080800000c4
:102c10000080000000000000008000000080000034
:102c200080800000808000000000000000000000a4
:102c300000ff000000000000000000000000000095
:102c40000000000000000000000000000000000084
:102c5000000000000000000000000000ff00000075
:102c6000000000000000000000000000007f0000e5
:102c700004040000040400007f00000000000000c5
:102c8000000000000000000000ff00000000000045
:102c90000000000000000000000000000000000034
:102ca0000000000000000000000000000000000024
:102cb000ff0000000000000000000000c8a80000a5
:102cc000988c00008a89000000ff000008080000be
:102cd00008ff00000000000000ff000000000000ee
:102ce000003f000040800000403f0000007f0000e7
:102cf00080800000808000007f000000ff1800003e
:102d00002848000087000000ff880000888000003d
:102d100000ff00000f78000040ff000000ff0000ef
:102d20000808000008ff000000000000000000008c
:102d300000ff000000000000000000000000000094
:102d40000000000000000000000000000000000083
:102d50000000000000000000000000007f400000b4
:102d60004040000040400000404000004040000063
:102d70004040000040400000404000004040000053
:102d80004040000040400000407f00000000000084
:102d90000000000000000000000000000000000033
:102da0000000000000000000000000000000000023
:102db0007f400000404000004040000040400000d4
:102dc0004040000040400000404000004040000003
:102dd00040400000404000004040000040400000f3
:102de00040400000404000004040000040400000e3
:102df00040400000404000004040000040400000d3
:102e000040400000404000004040000040400000c2
:102e100040400000404000004040000040400000b2
:102e200040400000404000004040000040400000a2
:102e3000407f0000000000000000000000000000d3
:102e40000000000000000000000000000000000082
:102e500000000000000000000000000000f800007a
:102e6000f08000000000000000800000f0f800008a
:102e700000f000000808000008080000f000000052
:102e8000f80800000808000008f00000000000003a
:102e90000000000000000000000000000000000032
:102ea0000000000000000000000000000000000022
:102eb0000000000000000000000000000000000012
:102ec0000000000000000000000000000000000002
:102ed00000000000000000000000000000000000f2
:102ee00000000000000000000000000000000000e2
:102ef00000000000000000000000000000000000d2
:102f000000000000000000000000000000000000c1
:102f100000000000000000000000000000000000b1
:102f200000000000000000000000000000000000a1
:102f30000000000000000000000000000000000091
:102f40000000000000000000000000000000000081
:102f5000000000000000000000000000000f000062
:102f6000000700000408000004070000000f000034
:102f70000007000008080000080800000700000023
:102f80000f0800000808000008070000000000000b
:102f90000000000000000000000000000000000031
:102fa0000000000000000000000000000000000021
:102fb0000000000000000000000000000000000011
:102fc0000000000000000000000000000000000001
:102fd00000000000000000000000000000000000f1
:102fe00000000000000000000000000000000000e1
:102ff00000000000000000000000000000000000d1
:1030000000000000000000000000000000000000c0
:1030100000000000000000000000000000000000b0
:1030200000000000000000000000000000000000a0
:103030000000000000000000000000000000000090
:103040000000000000000000000000000000000080
:103050000000000000000000000000000000000070
:103060000000000000000000000000000000000060
:1030700000000000f80c000006c200004242000000
:1030800002060000c4460000c20200000644000020
:1030900044cc00001810000030e0000000000000e8
:1030a0000000000000000000000000000000000020
:1030b0000000000000000000000000000080000090
:1030c0008080000080800000800000008080000080
:1030d00080800000000000000000000000000000f0
:1030e00000000000000000000000000000000000e0
:1030f000000000000000000000000000f80c0000cc
:1031000006c200004242000002060000c446000061
:10311000c20200000644000044cc00001810000069
:1031200030e000000000000000000000000000008f
:10313000fe0e00000e32000032c20000c28200000b
:10314000c2c20000323200000e0e0000fe0000007d
:10315000000000000000000000000000000000006f
:10316000000000000000000000000000003e000021
:10317000638100000100000000c70000040400009b
:10318000000000000704000007c000000007000066
:10319000050500000000000000810000ff000000a5
:1031a000000000000000000000000000000000001f
:1031b0000000000080c00000407e0000030100000d
:1031c000f01000001000000001f1000011f00000fc
:1031d00000010000d151000073060000040c000043
:1031e00078c00000000000000000000000000000a7
:1031f00000000000003e00006381000001000000ac
:1032000000c70000040400000000000007040000e4
:1032100007c00000000700000505000000000000d6
:1032200000810000ff00000000000000000000001e
:10323000ffe00000e098000098860000878300000f
:103240008786000098980000e0e00000ff00000082
:10325000000000000000000000000000000000006e
:10326000000000000000000000000000000000005e
:10327000000100000121000041ff0000402000008b
:1032800000ff000000100000207f00002010000060
:1032900000000000ff020000030100000000000029
:1032a000000000000000000000000000000000001e
:1032b000000000000f1800006040000040400000c7
:1032c000f101000001000000c00100000101000048
:1032d000f00000000101000001c0000080c00000fb
:1032e000603f00000000000000000000000000003f
:1032f00000000000000000000001000001210000ab
:1033000041ff00004020000000ff0000001000000e
:10331000207f00002010000000000000ff020000dd
:103320000301000000000000000000000000000099
:10333000000000000000000000000000000000008d
:10334000000000000000000000000000000000007d
:10335000000000000000000000000000000000006d
:10336000000000000000000000000000000000005d
:10337000000000000000000000000000000100004c
:103380000207000002010000000000000000000031
:10339000020400000f040000020000000000000012
:1033a000000000000000000000000000000000001d
:1033b00000000000000000000000000008100000f5
:1033c0003f10000048800000ff800000440800001b
:1033d0001f0800000480000000ff000000800000c3
:1033e00000000000000000000000000000000000dd
:1033f00000000000000000000000000000000000cd
:1034000000000000000100000207000002010000af
:103410000000000000000000020400000f04000093
:10342000020000000000000000000000000000009a
:10343000000000000000000000000000000000008c
:10344000000000000000000000000000000000007c
:10345000000000000000000000000000000000006c
:10346000000000000000000000000000000000005c
:10347000000000000000000000000000000000004c
:10348000000000000000000000000000000000003c
:10349000000000000000000000000000000000002c
:1034a000000000000000000000000000000000001c
:1034b000000000000000000000000000000000000c
:1034c00000000000000000000100000000000000fb
:1034d00000000000000000000103000001000000e7
:1034e00000000000000000000000000000000000dc
:1034f00000000000000000000000000000000000cc
:1035000000000000000000000000000000000000bb
:1035100000000000000000000000000000000000ab
:10352000000000000000000000000000000000009b
:10353000000000000000000000000000000000008b
:10354000000000000000000000000000000000007b
:10355000000000000000000000000000000000006b
:103560000000000000000000c040000040400000db
:10357000404000004040000040400000404000004b
:10358000404000004040000040400000404000003b
:10359000404000004040000040400000404000002b
:1035a000404000004040000040400000404000001b
:1035b000404000004040000040400000404000000b
:1035c00040400000404000004040000040400000fb
:1035d00040400000404000004040000040400000eb
:1035e00040400000404000004040000040400000db
:1035f00040400000404000004040000040400000cb
:1036000040400000404000004040000040400000ba
:1036100040400000404000004040000040400000aa
:10362000404000004040000040400000404000009a
:103630004040000040400000c000000000000000ca
:10364000000000000000000000000000000000007a
:10365000000000000000000000000000000000006a
:103660000000000000000000ff000000000000005b
:10367000000000000000000000000000000000004a
:10368000000000000000000000000000000000003a
:10369000000000000000000000000000000000002a
:1036a000000000000000000000000000000000001a
:1036b000000000000000000000000000000000000a
:1036c00000000000000000000000000000000000fa
:1036d00000000000000000000000000000000000ea
:1036e00000000000000000000000000000000000da
:1036f00000000000000000000000000000000000ca
:1037000000000000000000000000000000000000b9
:1037100000000000000000000000000000000000a9
:103720000000000000000000000000000000000099
:103730000000000000000000ff000000000000008a
:103740000000000000000000000000000000000079
:103750000000000000000000000000000000000069
:103760000000000000000000030200000202000050
:103770000202000002020000020200000202000039
:103780000202000002020000020200000202000029
:103790000202000002020000020200000202000019
:1037a0000202000002020000020200000202000009
:1037b00002020000020200000202000002020000f9
:1037c00002020000020200000202000002020000e9
:1037d00002020000020200000202000002020000d9
:1037e00002020000020200000202000002020000c9
:1037f00002020000020200000202000002020000b9
:1038000002020000020200000202000002020000a8
:103810000202000002020000020200000202000098
:103820000202000002020000020200000202000088
:10383000020200000202000003000000000000007d
:103840000000000000000000000000000000000078
:103850000000000000000000000000000000000068
:103860000000000000000000000000000000000058
:103870000000000000000000000000000000000048
:103880000000000000000000000000000000000038
:103890000000000000000000000000000000000028
:1038a0000000000000000000000000000000000018
:1038b0000000000000000000000000008010000078
:1038c000224400008810000020400000800000001a
:1038d000008000004020000010880000442200000a
:1038e0000080000000000000000000000000000058
:1038f00000000000000000000000000000000000c8
:1039000000000000000000000000000000000000b7
:1039100000000000000000000000000000000000a7
:103920000000000000000000000000000000000097
:10393000fe0e00000e32000032c20000c282000003
:10394000c2c20000323200000e0e0000fe00000075
:103950000000000000000000000000000000000067
:103960000000000000000000000000000000000057
:103970000000000000000000000000000000000047
:103980000000000000000000000000000000000037
:103990000000000000000000000000000000000027
:1039a0000000000000000000000000000000000017
:1039b0000000000000000000000000000081000086
:1039c0004220000010110000101000001010000034
:1039d0001010000010100000111000002042000024
:1039e0008100000000000000000000000000000056
:1039f00000000000000000000000000000000000c7
:103a000000000000000000000000000000000000b6
:103a100000000000000000000000000000000000a6
:103a20000000000000000000000000000000000096
:103a3000ffe00000e0980000988600008783000007
:103a40008786000098980000e0e00000ff0000007a
:103a50000000000000000000000000000000000066
:103a60000000000000000000000000000000000056
:103a70000000000000000000000000000000000046
:103a80000000000000000000000000000000000036
:103a90000000000000000000000000000000000026
:103aa0000000000000000000000000000000000016
:103ab000000000000000000000000000ff00000007
:103ac000000000000000000018240000f8200000a2
:103ad00020f8000024180000000000000000000092
:103ae00000ff0000000000000000000000000000d7
:103af00000000000000000000000000000000000c6
:103b000000000000000000000000000000000000b5
:103b100000000000000000000000000000000000a5
:103b20000000000000000000000000000000000095
:103b30000000000000000000000000000000000085
:103b40000000000000000000000000000000000075
:103b50000000000000000000000000000000000065
:103b60000000000000000000000000000000000055
:103b70000000000000000000000000000000000045
:103b80000000000000000000000000000000000035
:103b90000000000000000000000000000000000025
:103ba0000000000000000000000000000000000015
:103bb0000000000000000000000000000001000004
:103bc00002040000f8000000000000007f00000078
:103bd000007f00000000000000f800000402000068
:103be00001000000000000000000000000000000d4
:103bf00000000000000000000000000000000000c5
:103c000000000000000000000000000000000000b4
:103c100000000000000000000000000000000000a4
:103c20000000000000000000000000000000000094
:103c30000000000000000000000000000000000084
:103c40000000000000000000000000000000000074
:103c50000000000000000000000000000000000064
:103c60000000000000000000000000000000000054
:103c70000000000000000000000000000000000044
:103c80000000000000000000000000000000000034
:103c90000000000000000000000000000000000024
:103ca0000000000000000000000000000000000014
:103cb0000000000000000000000000000000000004
:103cc000000000000107000019e10000e1e1000030
:103cd000e1e10000e1190000070100000000000020
:103ce00000000000000000000000000000000000d4
:103cf00000000000000000000000000000000000c4
:103d000000000000000000000000000000000000b3
:103d100000000000000000000000000000000000a3
:103d20000000000000000000000000000000000093
:103d30000000000000000000000000000000000083
:103d40000000000000000000000000000000000073
:103d50000000000000000000000000000000000063
:103d60000000000000000000c040000040400000d3
:103d70004040000040400000404000004040000043
:103d80004040000040400000404000004040000033
:103d90004040000040400000404000004040000023
:103da0004040000040400000404000004040000013
:103db0004040000040400000404000004040000003
:103dc00040400000404000004040000040400000f3
:103dd00040400000404000004040000040400000e3
:103de00040400000404000004040000040400000d3
:103df00040400000404000004040000040400000c3
:103e000040400000404000004040000040400000b2
:103e100040400000404000004040000040400000a2
:103e20004040000040400000404000004040000092
:103e30004040000040400000c000000000000000c2
:103e40000000000000000000000000000000000072
:103e50000000000000000000000000000000000062
:103e60000000000000000000ff0000000000000053
:103e70000000000000000000000000000000000042
:103e80000000000000000000000000000000000032
:103e90000000000000000000000000000000000022
:103ea0000000000000000000000000000000000012
:103eb0000000000000000000000000000000000002
:103ec00000000000000000000000000000000000f2
:103ed00000000000000000000000000000000000e2
:103ee00000000000000000000000000000000000d2
:103ef00000000000000000000000000000000000c2
:103f000000000000000000000000000000000000b1
:103f100000000000000000000000000000000000a1
:103f20000000000000000000000000000000000091
:103f30000000000000000000ff0000000000000082
:103f40000000000000000000000000000000000071
:103f50000000000000000000000000000000000061
:103f60000000000000000000030200000202000048
:103f70000202000002020000020200000202000031
:103f80000202000002020000020200000202000021
:103f90000202000002020000020200000202000011
:103fa0000202000002020000020200000202000001
:103fb00002020000020200000202000002020000f1
:103fc00002020000020200000202000002020000e1
:103fd00002020000020200000202000002020000d1
:103fe00002020000020200000202000002020000c1
:103ff00002020000020200000202000002020000b1
:1040000002020000020200000202000002020000a0
:104010000202000002020000020200000202000090
:104020000202000002020000020200000202000080
:104030000202000002020000030000000000000075
:104040000000000000000000000000000000000070
:10405000446f0000627200006f6400006f73000024
:104060006c690000206e000061200000706f00008d
:1040700063650000746e000075200000737400001a
:10408000726100006e69000063750000212100006c
:104090000a0d0000004400006f620000726f000013
:1040a000646f0000736c0000692000007520000040
:1040b0006d6500006e690000210a00000d0000001f
:1040c0004d6100006e750000656c00006e690000b7
:1040d00020700000726900006b6100007a2000000f
:1040e0007672000061740000612100000a0d00007a
:1040f00000500000726900006b6100007a2000002f
:10410000434f0000322100000a0d00000050000063
:10411000726900006b6100007a2000007376000075
:10412000657400006c610000210a00000d000000b1
:10413000557000006973000069740000652000007c
:104140006f740000766f0000726900002f7a000023
:1041500061740000766f0000726900002075000035
:1041600020740000657200006d6900006e6100003f
:104170006c2000006b6100006b6f0000206200008b
:10418000692000006b6f00006e740000726f000009
:104190006c690000736100006c690000207600000b
:1041a0007261000074610000210a00000d0000002f
:1041b0006f740000766f000072690000004f00000d
:1041c0007476000061720000616d000020760000ce
:1041d00072610000746100002e2e00002e0a0000a3
:1041e0000d0000007a610000747600006f7200001c
:1041f000690000005a6100007476000061720000de
:10420000616d0000207600007261000074610000a2
:104210002e2e00002e0a00000d0000004e6500004a
:10422000706f00007a6e0000617400006120000071
:104230006b6f00006d6100006e640000612e000075
:104240000a0d000000500000726f0000636500005e
:104250006e61000074200000636f0000323a0000bd
:104260000a0d000000500000726f0000636500003e
:104270006e61000074200000737600006a65000023
:10428000746c0000613a00000a0d0000005000004c
:104290007269000074690000736e0000757400009c
:1042a0006f20000064750000676d0000652000004d
:1042b0007a610000206e0000617a000061640000f5
:1042c0002c2000007672000061630000616d000028
:1042d00020730000652000006e610000206d00006a
:1042e000656e0000692100000a0d0000000000005a
:1042f00056720000617400006120000073750000b8
:10430000206f0000747600006f720000656e000080
:10431000612100000a0d00000056000072610000db
:104320007461000020730000752000007a610000b5
:10433000747600006f720000656e0000612100005d
:104340000a0d000000560000726100007461000058
:1043500020730000752000006f740000766f00006d
:10436000726500006e61000020720000756300003d
:104370006e6f0000210a00000d000000dc0000004c
:0c4380003a0e0000080200007a0d000058
:020000040000fa
:10438c000200fa00004f78001e427800e04f520005
:10439c000500320015178000040220000482720010
:1043ac00141788000400370015178000f4fd2f0047
:1043bc0004826200141788000080fa0000000600d6
:1043cc000200fa00004f78001e427800e04f5200c5
:1043dc0004003200141780000440a0001417880059
:1043ec000400370015178000f4fe2f0004826200d1
:1043fc00141788000080fa00000006000200fa0082
:10440c00004f78001e427800e04f5200040032004a
:10441c00141780000410a000141788000400370043
:10442c0015178000d4ff2f00048262001417880037
:10443c000080fa00000006000200fa00004f78002d
:10444c001e427800e04f5200040032001417800026
:10445c000400a00014178800040037001517800012
:10446c00e4ff2f0004826200141788000080fa0019
:10447c00000006000200fa00004f78001e4278008f
:10448c00e04f520005003200551680000402200057
:10449c000482720054168800040037005516800000
:1044ac00f4fd2f0004826200541688000080fa008c
:1044bc00000006000200fa00004f78001e4278004f
:1044cc00e04f520004003200541680000440a0005b
:1044dc00541688000400370055168000f4fe2f0097
:1044ec0004826200541688000080fa000000060066
:1044fc000000fa00dea2a900de82a900de22a900db
:10450c00de02a900a8a2a800c6a2a900a882a80041
:10451c00c682a900a802a800c602a900a822a80069
:10452c00c622a900a842a800c642a900a862a800f9
:10453c00c662a900d202a900d222a900d242a900c7
:10454c00d262a9000080fa00000006000200fa0006
:10455c00004f78001e427800e04f520008003a00ed
:10456c00d202a900d222a900d242a900d262a9008b
:10457c00c662a900c642a900c622a900c602a900ab
:10458c001e427800e14f520008003a00d202a80007
:10459c00d222a800d242a800d262a800c662a8000b
:1045ac00c642a800c622a800c602a8000080fa00d5
:1045bc00000006000400fa00204798002e429000ec
:1045cc00044f7800b516800004ff2f0004826200af
:1045dc00b41688005516800004ff2f000482620078
:1045ec00541688009e4278006fc2620014479800ef
:1045fc001e4290008482fb005416800004827200dc
:10460c00541688009e4278000582fb004422de008e
:10461c00044f78001e4278008482fb00b4168000a0
:10462c0004827200b41688000080fa0000000600b4
:10463c000200fa00a4168000044f78001e42780095
:10464c00450020000522dd00044f78004416800050
:10465c00144798001e4290006f4262001447980065
:10466c001e4290001e424200144798001e429000c9
:10467c00044078000080fa00000006000000fa00f8
:10468c0010c0b3004eff07000040eb004cff0700ca
:10469c000080fa00000006000200fa00004f7800cb
:1046ac000040eb0064ff07000040eb0053ff0700e5
:1046bc001e407800bfff0700f0ff07000080fa00e3
:1046cc00000006000400fa00100798000002eb003e
:1046dc00040f7800010037001e0fe8001e02900046
:1046ec009e027800848f5200fbff39000080fa0094
:1046fc00000006000200fa000040eb004eff07002d
:10470c0010c0b3003dff070010c0b3008fff0700bf
:10471c0010c0b3002aff0700c5ff07000042780055
:10472c00044f78000040eb0025ff07000300370022
:10473c00bfff070000427800044f78001e4278004b
:10474c00e04f5200faff35000080fa00000006002e
:10475c000200fa00004f7800f4c3b3009e427800c8
:10476c0084cf52000a003e0010c0b300390007008d
:10477c0004c4b3001e42720004407800c6ff070058
:10478c0014c0b300044078003cecb7000f003700b5
:10479c001e427800e04f52000c0035000040eb0048
:1047ac002c00070004ccb3001e4242008442780067
:1047bc0004c4b30004c2720004407800b6ff0700c2
:1047cc000042eb00044078003cecb7001e4078003f
:1047dc003aecb7000080fa00000006000200fa0074
:1047ec00004f78001e427800e74f520006003e0052
:1047fc0084cbb3001e42720004407800a6ff070071
:10480c001e4078003becb7000080fa000000060068
:10481c000200fa00004f7800114798001e40780003
:10482c00cbff07001e409000ecff07000080fa0051
:10483c00000006000200fa00004f780004ccb30020
:10484c001e4272000440780093ff07000080fa00bb
:10485c00000006000200fa00004f78000040eb0058
:10486c00f5fe07001e427800e04f52000c003a00a3
:10487c000040eb00e1fe070010c0b3000dff070085
:10488c000040eb00fbfe0700f0c3b30082ff070003
:10489c000042eb00044078003cecb7000b00370002
:1048ac000040eb00d5fe07000040eb0001ff0700c5
:1048bc0010c0b300effe0700f0c3b30076ff070093
:1048cc0014c0b300044078003cecb7000080fa0040
:1048dc00000006000200fa0010c0b3001bff070026
:1048ec0010c0b300d4fe070010c0b300c3fe070015
:1048fc0062ff070010c0b300b1fe07004cff0700b9
:10490c0000427800044f78000040eb00acfe07003a
:10491c000040eb000dff07000040eb00c6fe070057
:10492c000040eb00b5fe07001e4278000440780002
:10493c000080fa00000006000000fa000040eb00c6
:10494c001cff07000040eb00bbfe07000040eb0023
:10495c00aafe07000040eb0099fe07000040eb00a8
:10496c00d4fe07000040eb00c2fe070010c0b300ed
:10497c0083fe0700a000200052ff07000040eb0060
:10498c007ffe0700a00020004eff070010c0b30000
:10499c007bfe070010c0b300aeff0700e0c3b300fe
:1049ac003dff070000ccb3003bff070080cbb300fa
:1049bc0039ff070000c4b30037ff0700f0c3b30092
:1049cc0035ff07000040eb00a2ff0700e0c3b30077
:1049dc0031ff070000ccb3002fff070080cbb300e2
:1049ec002dff070000c4b3002bff0700f0c3b3007a
:1049fc0029ff07000080fa00000006000200fa0000
:104a0c00004f780010c0b3008bfe07000040eb0095
:104a1c007afe07001e407800e6fe070017ff07002d
:104a2c000080fa00000006000200fa000042eb00d1
:104a3c00144798001d0037009e4090000040eb008a
:104a4c0073ff07000042eb00044f780003003700af
:104a5c000040eb00e9ff07001e4fe800f4c3b30071
:104a6c009e42780084cf5200f9ff36009e409000a1
:104a7c0000c4b30066ff07000042eb00044f78004f
:104a8c00030037000040eb00dcff07001e4fe8007e
:104a9c00f4c3b3009e42780084cf5200f9ff360075
:104aac001e4290000442e800144798001e429000f9
:104abc00e74f5200e0ff36000080fa0000000600cd
:104acc000200fa000042eb00144798001d0037006a
:104adc009e4090000040eb004dff07000042eb00b1
:104aec00044f78000300370000c0eb00c3ff070041
:104afc001e4fe800f4c3b3009e42780084cf5200ee
:104b0c00f9ff36009e40900000c4b30040ff070040
:104b1c000042eb00044f78000300370000c0eb00ac
:104b2c00b6ff07001e4fe800f4c3b3009e427800a6
:104b3c0084cf5200f9ff36001e4290000442e80078
:104b4c00144798001e429000e74f5200e0ff3600d9
:104b5c000080fa00000006000400fa00100798001c
:104b6c000042eb0014479800300037009e40900044
:104b7c000040eb0026ff07000042eb00044f7800da
:104b8c000c0037001e4290000482fb00c722dd009f
:104b9c001e4378000682fb00048242009e029000b5
:104bac0004824200144278000440780093ff07000e
:104bbc001e4fe800f4c3b3009e42780084cf52002d
:104bcc00f0ff36009e40900000c4b30010ff0700b9
:104bdc000042eb00044f78000d0037001e4290009d
:104bec000482fb00c722dd001e4378000682fb0016
:104bfc00048242000404b0009e0290000482420031
:104c0c0014427800044078007cff07001e4fe80037
:104c1c00f4c3b3009e42780084cf5200efff3600fd
:104c2c001e4290000442e800144798001e42900077
:104c3c00e74f5200cdff36000080fa00000006005e
:104c4c000400fa00100798000042eb00144798008b
:104c5c00300037009e4090000040eb00ecfe070057
:104c6c000042eb00044f78000c0037001e4290000d
:104c7c000482fb00c722dd001e4378000682fb0085
:104c8c00048242009e02900004824200144278008a
:104c9c000440780059ff07001e4fe800f4c3b3002e
:104cac009e42780084cf5200f0ff36009e40900068
:104cbc0000c4b300d6fe07000042eb00044f78009e
:104ccc000d0037001e4290000482fb00c722dd005d
:104cdc001e4378000682fb00048242000404b000ec
:104cec009e02900004824200144278000440780036
:104cfc0042ff07001e4fe800f4c3b3009e42780049
:104d0c0084cf5200efff36001e4290000442e800b0
:104d1c00144798001e429000e74f5200cdff36001a
:104d2c000080fa00000006000a00fa003007980024
:104d3c00410798004e029000e00f520002003d0027
:104d4c000002eb0044079800ce02900044062000bd
:104d5c00848f52000200340044062000440798005f
:104d6c00e430200014079800440620002407980023
:104d7c000002eb00040f7800120037004e02900086
:104d8c009e027800848f520007003d001e029000a6
:104d9c001e024200be0290008482420000c2eb0060
:104dac00844a7800060037001e0290001e02420062
:104dbc00be029000848242000042eb00844a7800dc
:104dcc001e0fe8002e0290009e027800848f520085
:104ddc00eaff35000080200099ff07000080fa00f0
:104dec00000006000800fa00000f78001107980078
:104dfc00220798003307980004c120001442780061
:104e0c00e04f5200120032009e02780034618000a4
:104e1c00848f52000e0031009e029000346180009d
:104e2c00848f52000a003600ae029000446180006c
:104e3c00848f520006003100be0290004461800055
:104e4c00848f52000200360014002000010037004d
:104e5c000002eb0004427800044078000080fa0065
:104e6c00000006000000fa0095608000a46080003d
:104e7c00848f52000500320094608000040078009a
:104e8c002400070094608000a46088000080fa0071
:104e9c00000006000000fa0094608000050020006d
:104eac006600200007002000860f5200878f5a00f2
:104ebc0014003e00046001000600370007003700b4
:104ecc0008003700090037000800370009003700d8
:104edc000a003700670007000c0037007500070058
:104eec000a003700bd000700080037003301070037
:104efc000600370071010700040037009b01070012
:104f0c00020037005b000700000000000080fa0080
:104f1c00000006000200fa00000f78001e02780064
:104f2c00050020006600200007002000860f5200bc
:104f3c00878f5a003b003e000460010006003700da
:104f4c000e003700160037001e0037002000370017
:104f5c00220037002a00370080422800fefe07009e
:104f6c00e4c3200014427800e04f520036003200b7
:104f7c0080022a00560507003c003700808228007a
:104f8c00f5fe0700e4c3200014427800e04f520005
:104f9c002f003200b0042a004d0507003300370003
:104fac0080c22800ecfe0700e4c320001442780005
:104fbc00e04f52002800320000062a00440507008a
:104fcc002a00370080022900e3fe07002700370083
:104fdc0080422900e0fe07002400370000802000fa
:104fec0017ff0700e4c3200014427800e04f520082
:104ffc001b00320090072a00350507001b00370004
:10500c00008020000eff0700e4c32000144278004b
:10501c00e04f52001400320070082a002c050700e3
:10502c001200370080422800cbfe0700e4c32000aa
:10503c0014427800e04f52000c00320080022a002b
:10504c0023050700090037000000000007003700a7
:10505c0000000000050037000000000003003700ce
:10506c000000000001003700000000000080fa0082
:10507c00000006000000fa00030420000001eb0011
:10508c00010820000000eb0056ff070000427800ea
:10509c00e04f52000500320014002000946088009c
:1050ac000042eb000440780010ecb7000080fa00de
:1050bc00000006000000fa00c3032000e2002000fc
:1050cc00b10120004000200046ff0700004278009c
:1050dc00e04f5200150032000042eb000440780013
:1050ec0010ecb70064c1200014427800e04f52006d
:1050fc0002003200240020000700370074c1200099
:10510c0014427800e04f52000200320034002000bc
:10511c000100370044002000946088000042eb003e
:10512c00044078001becb7002a003700c3032000b2
:10513c00e2002000b10320004002200029ff0700fc
:10514c0000427800e04f5200060032000042eb00b3
:10515c000440780010ecb7005400200094608800e4
:10516c001c003700c3032000e2002000b105200022
:10517c00400420001bff070000427800e04f520063
:10518c00060032000042eb000440780010ecb7003f
:10519c0064002000946088000e003700c3032000d8
:1051ac00e2002000b1072000400620000dff0700a0
:1051bc0000427800e04f5200060032000042eb0043
:1051cc000440780010ecb7000002eb0094608800fb
:1051dc00000000000080fa00000006000000fa0049
:1051ec00b4c12000144278000404a200e04f520025
:1051fc000500320080092a00b504070014c0b30072
:10520c00044078001becb700930220004201200000
:10521c00d101200060002000f2fe0700004278005f
:10522c00e04f52000f0032000042eb0004407800c7
:10523c0010ecb70074c1200014427800e04f52000b
:10524c00020032003400200001003700440020002e
:10525c00946088000042eb000440780016ecb70024
:10526c0054003700930220004201200071042000fa
:10527c0000032000dbfe070000427800e04f5200e4
:10528c000f00320074c12000144278000404a20004
:10529c00e04f52000a003200940307004001200046
:1052ac00b002070014c0b3000440780017ecb7003c
:1052bc000042eb000440780010ecb7003d003700d2
:1052cc00930220004201200031072000c00520007d
:1052dc00c4fe070000427800e04f52000e0032007e
:1052ec0074c1200014427800e04f52000a003200d2
:1052fc006e030700400120009a0207000042eb00f9
:10530c000440780017ecb7000042eb000440780032
:10531c0010ecb7002700370084c32000144278003b
:10532c00e04f5200230032000042eb0004407800b2
:10533c0038ecb700810d2a0000c020003aed0700c0
:10534c0000027800e00f520009003a00f00d2a002c
:10535c005f0407006503070040012000810207007d
:10536c0014c0b3000440780017ecb70011003700ec
:10537c00210f2a0000c020002bed0700000278004e
:10538c00e00f520009003a00a00f2a005004070059
:10539c004603070040012000720207000042eb00a8
:1053ac000440780017ecb70002003700e0102a0028
:1053bc00470407000080fa00000006000000fa0015
:1053cc009302200042012000d10120006000200047
:1053dc0084fe070000427800e04f52000c003200bf
:1053ec000042eb000440780010ecb70014c0b3008e
:1053fc000440780016ecb70024002000946088006c
:10540c000042eb00044078001becb7002900370089
:10541c008b03070000427800e04f5200110032006d
:10542c0084c12000144278000404a200e04f520012
:10543c000c0032000d030700400120004902070058
:10544c0014c0b3000440780017ecb70014c0b300cc
:10545c000440780018ecb7003400200094608800f9
:10546c001400370076030700004278000404a20001
:10547c00e04f52000f00320084c12000144278002b
:10548c00e04f52000b0032000803070040012000df
:10549c00340207000042eb000440780017ecb70020
:1054ac000042eb000440780018ecb70044002000e8
:1054bc00946088000080fa00000006000000fa00ea
:1054cc0094c12000144278000404a200e04f520062
:1054dc000a0032000228200081822900008020006e
:1054ec00caec070014c0b3000440780019ecb700f4
:1054fc000042eb00044078001aecb700f4c2200024
:10550c0014427800e04f52000a00320024618000ff
:10551c00040078002703070000027800840078005c
:10552c000080200000fe07000042eb0004407800e1
:10553c002fecb700e4c3200014427800e04f520077
:10554c000800320030122a00e103070024618000b9
:10555c0004007800170307000002780004007800ac
:10556c00990307000080fa00000006000000fa0012
:10557c00a4c12000144278000404a200e04f5200a1
:10558c000a0032000228200081c22900008020007d
:10559c009eec070014c0b300044078001aecb7006e
:1055ac000042eb000440780019ecb700f4c2200074
:1055bc0014427800e04f52000a003200146180005f
:1055cc0004007800d90207000002780084007800fb
:1055dc0000802000d4fd07000042eb00044078005e
:1055ec002fecb700e4c3200014427800e04f5200c7
:1055fc000800320030132a00b50307001461800044
:10560c0004007800c902070000027800040078004a
:10561c006d0307000080fa00000006000000fa008d
:10562c0004c1200014427800e04f520019003200ef
:10563c00030420000203200001082000e0062000e3
:10564c00e8fd070000427800e04f520011003200e4
:10565c0094608000e00f52000e00320094608000d5
:10566c00e10f52000b003200e4c32000144278001a
:10567c00e04f52000200320070142a00940307001d
:10568c000042eb000440780010ecb700140020003e
:0c569c00946088000080fa000000060006
:020000040000fa
:1056a8001e0c000008000000000000003e0c000076
:1056b800020000000200000001000000000c0000d1
:1056c8001000000000000000360c0000040000007c
:1056d800020000000000000000000000260c00008e
:1056e80008000000020000000000000000000000a8
:1056f800000000002e0c000008000000020000005e
:105708000000000000000000000000003a0c00004b
:10571800040000000200000000000000000000007b
:10572800100c00000e000000020000000100000044
:1057380000ffff0000000000000000000000000063
:105748000008000000040000020000000000000043
:105758000000000000000000000000000000000041
:105768000000000000000000000000000000000031
:105778000000000000000000000000000000000021
:105788000000000000000000000000000000000011
:105ab80000c040004040400040404000404040009e
:105ac80040404000404040004040400040404000ce
:105ad80040404000404040004040400040404000be
:105ae80040404000404040004040400040404000ae
:105af800404040004040400040404000404040009e
:105b0800404040004040400040404000404040008d
:105b1800404040004040400040404000404040007d
:105b2800404040004040400040404000404040006d
:105b380040404000404040004040c000000000009d
:105b4800000000000000000000000000000000004d
:105b5800000000000000000000000000ff0000003e
:105b6800000000000000000000000000000000002d
:105b7800000000000000000000000000000000001d
:105b8800000000000000000000000000000000000d
:105b980000000000000000000000000000000000fd
:105ba80000000000000000000000000000000000ed
:105bb80000000000000000000000000000000000dd
:105bc80000000000000000000000000000000000cd
:105bd80000000000000000000000000000000000bd
:105be8000000000000ff00000000000000000000ae
:105bf800000000000000000000000000000000009d
:105c0800000000000000030002020200020202007d
:105c18000202020002020200020202000202020064
:105c28000202020002020200020202000202020054
:105c38000202020002020200020202000202020044
:105c48000202020002020200020202000202020034
:105c58000202020002020200020202000202020024
:105c68000202020002020200020202000202020014
:105c78000202020002020200020202000202020004
:105c880002020200020202000202020002020200f4
:105c980003000000000000000000000000000000f9
:085ca8000000000000000000f4
:020000040000fa
:105cb0000000fa0004000700440007007900070014
:105cc0000080fa00000006000000fa0005e1a900cb
:105cd0000002eb0004088800146820001408880003
:105ce0000421a900a404800004c0a00004d0a100e5
:105cf00004e0a100a40488008460a9008c60a800ce
:105d000005e1a8000080fa0000000600841f78006a
:105d10003400f80004002000a40188000000fa000c
:105d20000002eb0004088800946180000402e8008f
:105d3000946188008460a9000080fa003400f900b2
:105d40004f027800004006000200fa00000f7800c1
:105d50000002eb0094618800000000009461800064
:105d60009e0f5200fdff39000080fa00000006007f
:105d70000200fa00000f78000002eb009461880036
:105d8000000000001e027800040242008402780035
:105d900094618000848f5200faff3e000080fa0078
:105da000000006000200fa00000f78009e02780052
:105db000843e200004aab9000402780004007800a0
:105dc000ebff07000080fa00000006000000fa0068
